{
  "contractName": "Ledger",
  "abi": [
    {
      "inputs": [],
      "stateMutability": "nonpayable",
      "type": "constructor"
    },
    {
      "anonymous": false,
      "inputs": [
        {
          "indexed": true,
          "internalType": "address",
          "name": "_collaborator",
          "type": "address"
        }
      ],
      "name": "CollaboratorAdded",
      "type": "event"
    },
    {
      "anonymous": false,
      "inputs": [
        {
          "indexed": false,
          "internalType": "uint256",
          "name": "id",
          "type": "uint256"
        },
        {
          "indexed": false,
          "internalType": "string",
          "name": "title",
          "type": "string"
        },
        {
          "indexed": false,
          "internalType": "string",
          "name": "description",
          "type": "string"
        },
        {
          "indexed": false,
          "internalType": "uint256",
          "name": "amount",
          "type": "uint256"
        },
        {
          "indexed": false,
          "internalType": "uint256",
          "name": "date",
          "type": "uint256"
        },
        {
          "indexed": false,
          "internalType": "bool",
          "name": "isExpense",
          "type": "bool"
        }
      ],
      "name": "TransactionAdded",
      "type": "event"
    },
    {
      "inputs": [
        {
          "internalType": "address",
          "name": "",
          "type": "address"
        },
        {
          "internalType": "uint256",
          "name": "",
          "type": "uint256"
        }
      ],
      "name": "collaborators",
      "outputs": [
        {
          "internalType": "address",
          "name": "",
          "type": "address"
        }
      ],
      "stateMutability": "view",
      "type": "function",
      "constant": true
    },
    {
      "inputs": [
        {
          "internalType": "address",
          "name": "",
          "type": "address"
        },
        {
          "internalType": "uint256",
          "name": "",
          "type": "uint256"
        }
      ],
      "name": "transactions",
      "outputs": [
        {
          "internalType": "uint256",
          "name": "id",
          "type": "uint256"
        },
        {
          "internalType": "string",
          "name": "title",
          "type": "string"
        },
        {
          "internalType": "string",
          "name": "description",
          "type": "string"
        },
        {
          "internalType": "uint256",
          "name": "amount",
          "type": "uint256"
        },
        {
          "internalType": "uint256",
          "name": "date",
          "type": "uint256"
        },
        {
          "internalType": "bool",
          "name": "isExpense",
          "type": "bool"
        }
      ],
      "stateMutability": "view",
      "type": "function",
      "constant": true
    },
    {
      "inputs": [
        {
          "internalType": "address",
          "name": "_collaborator",
          "type": "address"
        }
      ],
      "name": "addCollaborator",
      "outputs": [],
      "stateMutability": "nonpayable",
      "type": "function"
    },
    {
      "inputs": [],
      "name": "getCollaborators",
      "outputs": [
        {
          "internalType": "address[]",
          "name": "",
          "type": "address[]"
        }
      ],
      "stateMutability": "view",
      "type": "function",
      "constant": true
    },
    {
      "inputs": [],
      "name": "getCollaboratorCount",
      "outputs": [
        {
          "internalType": "uint256",
          "name": "",
          "type": "uint256"
        }
      ],
      "stateMutability": "view",
      "type": "function",
      "constant": true
    },
    {
      "inputs": [
        {
          "internalType": "address",
          "name": "_collaborator",
          "type": "address"
        }
      ],
      "name": "getCollaboratorTransactions",
      "outputs": [
        {
          "components": [
            {
              "internalType": "uint256",
              "name": "id",
              "type": "uint256"
            },
            {
              "internalType": "string",
              "name": "title",
              "type": "string"
            },
            {
              "internalType": "string",
              "name": "description",
              "type": "string"
            },
            {
              "internalType": "uint256",
              "name": "amount",
              "type": "uint256"
            },
            {
              "internalType": "uint256",
              "name": "date",
              "type": "uint256"
            },
            {
              "internalType": "bool",
              "name": "isExpense",
              "type": "bool"
            }
          ],
          "internalType": "struct Ledger.Transaction[]",
          "name": "",
          "type": "tuple[]"
        }
      ],
      "stateMutability": "view",
      "type": "function",
      "constant": true
    },
    {
      "inputs": [
        {
          "internalType": "string",
          "name": "_title",
          "type": "string"
        },
        {
          "internalType": "string",
          "name": "_description",
          "type": "string"
        },
        {
          "internalType": "uint256",
          "name": "_amount",
          "type": "uint256"
        },
        {
          "internalType": "uint256",
          "name": "_date",
          "type": "uint256"
        },
        {
          "internalType": "bool",
          "name": "_isExpense",
          "type": "bool"
        }
      ],
      "name": "addTransaction",
      "outputs": [],
      "stateMutability": "nonpayable",
      "type": "function"
    },
    {
      "inputs": [],
      "name": "getTransactions",
      "outputs": [
        {
          "components": [
            {
              "internalType": "uint256",
              "name": "id",
              "type": "uint256"
            },
            {
              "internalType": "string",
              "name": "title",
              "type": "string"
            },
            {
              "internalType": "string",
              "name": "description",
              "type": "string"
            },
            {
              "internalType": "uint256",
              "name": "amount",
              "type": "uint256"
            },
            {
              "internalType": "uint256",
              "name": "date",
              "type": "uint256"
            },
            {
              "internalType": "bool",
              "name": "isExpense",
              "type": "bool"
            }
          ],
          "internalType": "struct Ledger.Transaction[]",
          "name": "",
          "type": "tuple[]"
        }
      ],
      "stateMutability": "view",
      "type": "function",
      "constant": true
    },
    {
      "inputs": [
        {
          "internalType": "uint256",
          "name": "_id",
          "type": "uint256"
        }
      ],
      "name": "getTransaction",
      "outputs": [
        {
          "components": [
            {
              "internalType": "uint256",
              "name": "id",
              "type": "uint256"
            },
            {
              "internalType": "string",
              "name": "title",
              "type": "string"
            },
            {
              "internalType": "string",
              "name": "description",
              "type": "string"
            },
            {
              "internalType": "uint256",
              "name": "amount",
              "type": "uint256"
            },
            {
              "internalType": "uint256",
              "name": "date",
              "type": "uint256"
            },
            {
              "internalType": "bool",
              "name": "isExpense",
              "type": "bool"
            }
          ],
          "internalType": "struct Ledger.Transaction",
          "name": "",
          "type": "tuple"
        }
      ],
      "stateMutability": "view",
      "type": "function",
      "constant": true
    },
    {
      "inputs": [],
      "name": "getTransactionCount",
      "outputs": [
        {
          "internalType": "uint256",
          "name": "",
          "type": "uint256"
        }
      ],
      "stateMutability": "view",
      "type": "function",
      "constant": true
    }
  ],
  "bytecode": "0x60806040523480156200001157600080fd5b50620000786040518060400160405280600681526020017f53616c6172790000000000000000000000000000000000000000000000000000815250604051806060016040528060258152602001620022776025913961c350426001620000e460201b60201c565b620000de6040518060400160405280600a81526020017f496e766573746d656e74000000000000000000000000000000000000000000008152506040518060600160405280602181526020016200229c602191396103e9426001620000e460201b60201c565b620005a7565b6000803373ffffffffffffffffffffffffffffffffffffffff1673ffffffffffffffffffffffffffffffffffffffff1681526020019081526020016000206040518060c001604052806000803373ffffffffffffffffffffffffffffffffffffffff1673ffffffffffffffffffffffffffffffffffffffff1681526020019081526020016000208054905081526020018781526020018681526020018581526020018481526020018315158152509080600181540180825580915050600190039060005260206000209060060201600090919091909150600082015181600001556020820151816001019080519060200190620001e3929190620002d2565b50604082015181600201908051906020019062000202929190620002d2565b50606082015181600301556080820151816004015560a08201518160050160006101000a81548160ff02191690831515021790555050507fcf074699298d896d76be88ae52d4a6bea5e1ea74c5931d6f3a57f9ebc450481d60016000803373ffffffffffffffffffffffffffffffffffffffff1673ffffffffffffffffffffffffffffffffffffffff16815260200190815260200160002080549050620002aa9190620003bb565b8686868686604051620002c396959493929190620004c8565b60405180910390a15050505050565b828054620002e09062000572565b90600052602060002090601f01602090048101928262000304576000855562000350565b82601f106200031f57805160ff191683800117855562000350565b8280016001018555821562000350579182015b828111156200034f57825182559160200191906001019062000332565b5b5090506200035f919062000363565b5090565b5b808211156200037e57600081600090555060010162000364565b5090565b6000819050919050565b7f4e487b7100000000000000000000000000000000000000000000000000000000600052601160045260246000fd5b6000620003c88262000382565b9150620003d58362000382565b925082821015620003eb57620003ea6200038c565b5b828203905092915050565b620004018162000382565b82525050565b600081519050919050565b600082825260208201905092915050565b60005b838110156200044357808201518184015260208101905062000426565b8381111562000453576000848401525b50505050565b6000601f19601f8301169050919050565b6000620004778262000407565b62000483818562000412565b93506200049581856020860162000423565b620004a08162000459565b840191505092915050565b60008115159050919050565b620004c281620004ab565b82525050565b600060c082019050620004df6000830189620003f6565b8181036020830152620004f381886200046a565b905081810360408301526200050981876200046a565b90506200051a6060830186620003f6565b620005296080830185620003f6565b6200053860a0830184620004b7565b979650505050505050565b7f4e487b7100000000000000000000000000000000000000000000000000000000600052602260045260246000fd5b600060028204905060018216806200058b57607f821691505b602082108103620005a157620005a062000543565b5b50919050565b611cc080620005b76000396000f3fe608060405234801561001057600080fd5b506004361061009e5760003560e01c8063a242592711610066578063a242592714610174578063b53fffcb14610192578063c02fc580146101ae578063ccdbe6a6146101de578063ffad0fc6146101fa5761009e565b806314538128146100a35780632e7700f0146100d857806333ea3dc8146100f65780633e74b4cd1461012657806383920e9014610156575b600080fd5b6100bd60048036038101906100b89190611279565b610218565b6040516100cf9695949392919061137c565b60405180910390f35b6100e061038e565b6040516100ed91906113eb565b60405180910390f35b610110600480360381019061010b9190611406565b6103d7565b60405161011d919061152b565b60405180910390f35b610140600480360381019061013b9190611279565b6105ac565b60405161014d919061155c565b60405180910390f35b61015e6105fa565b60405161016b91906116c9565b60405180910390f35b61017c6107f2565b60405161018991906113eb565b60405180910390f35b6101ac60048036038101906101a7919061184c565b61083c565b005b6101c860048036038101906101c391906118ff565b610a22565b6040516101d591906116c9565b60405180910390f35b6101f860048036038101906101f391906118ff565b610d78565b005b61020261102b565b60405161020f91906119ea565b60405180910390f35b6000602052816000526040600020818154811061023457600080fd5b90600052602060002090600602016000915091505080600001549080600101805461025e90611a3b565b80601f016020809104026020016040519081016040528092919081815260200182805461028a90611a3b565b80156102d75780601f106102ac576101008083540402835291602001916102d7565b820191906000526020600020905b8154815290600101906020018083116102ba57829003601f168201915b5050505050908060020180546102ec90611a3b565b80601f016020809104026020016040519081016040528092919081815260200182805461031890611a3b565b80156103655780601f1061033a57610100808354040283529160200191610365565b820191906000526020600020905b81548152906001019060200180831161034857829003601f168201915b5050505050908060030154908060040154908060050160009054906101000a900460ff16905086565b60008060003373ffffffffffffffffffffffffffffffffffffffff1673ffffffffffffffffffffffffffffffffffffffff16815260200190815260200160002080549050905090565b6103df6110f6565b6000803373ffffffffffffffffffffffffffffffffffffffff1673ffffffffffffffffffffffffffffffffffffffff168152602001908152602001600020828154811061042f5761042e611a6c565b5b90600052602060002090600602016040518060c00160405290816000820154815260200160018201805461046290611a3b565b80601f016020809104026020016040519081016040528092919081815260200182805461048e90611a3b565b80156104db5780601f106104b0576101008083540402835291602001916104db565b820191906000526020600020905b8154815290600101906020018083116104be57829003601f168201915b505050505081526020016002820180546104f490611a3b565b80601f016020809104026020016040519081016040528092919081815260200182805461052090611a3b565b801561056d5780601f106105425761010080835404028352916020019161056d565b820191906000526020600020905b81548152906001019060200180831161055057829003601f168201915b5050505050815260200160038201548152602001600482015481526020016005820160009054906101000a900460ff1615151515815250509050919050565b600160205281600052604060002081815481106105c857600080fd5b906000526020600020016000915091509054906101000a900473ffffffffffffffffffffffffffffffffffffffff1681565b60606000803373ffffffffffffffffffffffffffffffffffffffff1673ffffffffffffffffffffffffffffffffffffffff168152602001908152602001600020805480602002602001604051908101604052809291908181526020016000905b828210156107e957838290600052602060002090600602016040518060c00160405290816000820154815260200160018201805461069790611a3b565b80601f01602080910402602001604051908101604052809291908181526020018280546106c390611a3b565b80156107105780601f106106e557610100808354040283529160200191610710565b820191906000526020600020905b8154815290600101906020018083116106f357829003601f168201915b5050505050815260200160028201805461072990611a3b565b80601f016020809104026020016040519081016040528092919081815260200182805461075590611a3b565b80156107a25780601f10610777576101008083540402835291602001916107a2565b820191906000526020600020905b81548152906001019060200180831161078557829003601f168201915b5050505050815260200160038201548152602001600482015481526020016005820160009054906101000a900460ff1615151515815250508152602001906001019061065a565b50505050905090565b6000600160003373ffffffffffffffffffffffffffffffffffffffff1673ffffffffffffffffffffffffffffffffffffffff16815260200190815260200160002080549050905090565b6000803373ffffffffffffffffffffffffffffffffffffffff1673ffffffffffffffffffffffffffffffffffffffff1681526020019081526020016000206040518060c001604052806000803373ffffffffffffffffffffffffffffffffffffffff1673ffffffffffffffffffffffffffffffffffffffff168152602001908152602001600020805490508152602001878152602001868152602001858152602001848152602001831515815250908060018154018082558091505060019003906000526020600020906006020160009091909190915060008201518160000155602082015181600101908051906020019061093992919061112e565b50604082015181600201908051906020019061095692919061112e565b50606082015181600301556080820151816004015560a08201518160050160006101000a81548160ff02191690831515021790555050507fcf074699298d896d76be88ae52d4a6bea5e1ea74c5931d6f3a57f9ebc450481d60016000803373ffffffffffffffffffffffffffffffffffffffff1673ffffffffffffffffffffffffffffffffffffffff168152602001908152602001600020805490506109fc9190611aca565b8686868686604051610a139695949392919061137c565b60405180910390a15050505050565b6060816000805b600160003373ffffffffffffffffffffffffffffffffffffffff1673ffffffffffffffffffffffffffffffffffffffff16815260200190815260200160002080549050811015610b3d578273ffffffffffffffffffffffffffffffffffffffff16600160003373ffffffffffffffffffffffffffffffffffffffff1673ffffffffffffffffffffffffffffffffffffffff1681526020019081526020016000208281548110610adb57610ada611a6c565b5b9060005260206000200160009054906101000a900473ffffffffffffffffffffffffffffffffffffffff1673ffffffffffffffffffffffffffffffffffffffff1603610b2a5760019150610b3d565b8080610b3590611afe565b915050610a29565b5080610b7e576040517f08c379a0000000000000000000000000000000000000000000000000000000008152600401610b7590611b92565b60405180910390fd5b6000808573ffffffffffffffffffffffffffffffffffffffff1673ffffffffffffffffffffffffffffffffffffffff168152602001908152602001600020805480602002602001604051908101604052809291908181526020016000905b82821015610d6b57838290600052602060002090600602016040518060c001604052908160008201548152602001600182018054610c1990611a3b565b80601f0160208091040260200160405190810160405280929190818152602001828054610c4590611a3b565b8015610c925780601f10610c6757610100808354040283529160200191610c92565b820191906000526020600020905b815481529060010190602001808311610c7557829003601f168201915b50505050508152602001600282018054610cab90611a3b565b80601f0160208091040260200160405190810160405280929190818152602001828054610cd790611a3b565b8015610d245780601f10610cf957610100808354040283529160200191610d24565b820191906000526020600020905b815481529060010190602001808311610d0757829003601f168201915b5050505050815260200160038201548152602001600482015481526020016005820160009054906101000a900460ff16151515158152505081526020019060010190610bdc565b5050505092505050919050565b808073ffffffffffffffffffffffffffffffffffffffff163373ffffffffffffffffffffffffffffffffffffffff1603610de7576040517f08c379a0000000000000000000000000000000000000000000000000000000008152600401610dde90611bfe565b60405180910390fd5b816000805b600160008473ffffffffffffffffffffffffffffffffffffffff1673ffffffffffffffffffffffffffffffffffffffff16815260200190815260200160002080549050811015610f00573373ffffffffffffffffffffffffffffffffffffffff16600160008573ffffffffffffffffffffffffffffffffffffffff1673ffffffffffffffffffffffffffffffffffffffff1681526020019081526020016000208281548110610e9e57610e9d611a6c565b5b9060005260206000200160009054906101000a900473ffffffffffffffffffffffffffffffffffffffff1673ffffffffffffffffffffffffffffffffffffffff1603610eed5760019150610f00565b8080610ef890611afe565b915050610dec565b508015610f42576040517f08c379a0000000000000000000000000000000000000000000000000000000008152600401610f3990611c6a565b60405180910390fd5b600160008573ffffffffffffffffffffffffffffffffffffffff1673ffffffffffffffffffffffffffffffffffffffff168152602001908152602001600020339080600181540180825580915050600190039060005260206000200160009091909190916101000a81548173ffffffffffffffffffffffffffffffffffffffff021916908373ffffffffffffffffffffffffffffffffffffffff1602179055508373ffffffffffffffffffffffffffffffffffffffff167f4e94d74a2e4483c0539321ba103f7f9a703453da02945cf5b2fabef18e688ef260405160405180910390a250505050565b6060600160003373ffffffffffffffffffffffffffffffffffffffff1673ffffffffffffffffffffffffffffffffffffffff1681526020019081526020016000208054806020026020016040519081016040528092919081815260200182805480156110ec57602002820191906000526020600020905b8160009054906101000a900473ffffffffffffffffffffffffffffffffffffffff1673ffffffffffffffffffffffffffffffffffffffff16815260200190600101908083116110a2575b5050505050905090565b6040518060c0016040528060008152602001606081526020016060815260200160008152602001600081526020016000151581525090565b82805461113a90611a3b565b90600052602060002090601f01602090048101928261115c57600085556111a3565b82601f1061117557805160ff19168380011785556111a3565b828001600101855582156111a3579182015b828111156111a2578251825591602001919060010190611187565b5b5090506111b091906111b4565b5090565b5b808211156111cd5760008160009055506001016111b5565b5090565b6000604051905090565b600080fd5b600080fd5b600073ffffffffffffffffffffffffffffffffffffffff82169050919050565b6000611210826111e5565b9050919050565b61122081611205565b811461122b57600080fd5b50565b60008135905061123d81611217565b92915050565b6000819050919050565b61125681611243565b811461126157600080fd5b50565b6000813590506112738161124d565b92915050565b600080604083850312156112905761128f6111db565b5b600061129e8582860161122e565b92505060206112af85828601611264565b9150509250929050565b6112c281611243565b82525050565b600081519050919050565b600082825260208201905092915050565b60005b838110156113025780820151818401526020810190506112e7565b83811115611311576000848401525b50505050565b6000601f19601f8301169050919050565b6000611333826112c8565b61133d81856112d3565b935061134d8185602086016112e4565b61135681611317565b840191505092915050565b60008115159050919050565b61137681611361565b82525050565b600060c08201905061139160008301896112b9565b81810360208301526113a38188611328565b905081810360408301526113b78187611328565b90506113c660608301866112b9565b6113d360808301856112b9565b6113e060a083018461136d565b979650505050505050565b600060208201905061140060008301846112b9565b92915050565b60006020828403121561141c5761141b6111db565b5b600061142a84828501611264565b91505092915050565b61143c81611243565b82525050565b600082825260208201905092915050565b600061145e826112c8565b6114688185611442565b93506114788185602086016112e4565b61148181611317565b840191505092915050565b61149581611361565b82525050565b600060c0830160008301516114b36000860182611433565b50602083015184820360208601526114cb8282611453565b915050604083015184820360408601526114e58282611453565b91505060608301516114fa6060860182611433565b50608083015161150d6080860182611433565b5060a083015161152060a086018261148c565b508091505092915050565b60006020820190508181036000830152611545818461149b565b905092915050565b61155681611205565b82525050565b6000602082019050611571600083018461154d565b92915050565b600081519050919050565b600082825260208201905092915050565b6000819050602082019050919050565b600060c0830160008301516115bb6000860182611433565b50602083015184820360208601526115d38282611453565b915050604083015184820360408601526115ed8282611453565b91505060608301516116026060860182611433565b5060808301516116156080860182611433565b5060a083015161162860a086018261148c565b508091505092915050565b600061163f83836115a3565b905092915050565b6000602082019050919050565b600061165f82611577565b6116698185611582565b93508360208202850161167b85611593565b8060005b858110156116b757848403895281516116988582611633565b94506116a383611647565b925060208a0199505060018101905061167f565b50829750879550505050505092915050565b600060208201905081810360008301526116e38184611654565b905092915050565b600080fd5b600080fd5b7f4e487b7100000000000000000000000000000000000000000000000000000000600052604160045260246000fd5b61172d82611317565b810181811067ffffffffffffffff8211171561174c5761174b6116f5565b5b80604052505050565b600061175f6111d1565b905061176b8282611724565b919050565b600067ffffffffffffffff82111561178b5761178a6116f5565b5b61179482611317565b9050602081019050919050565b82818337600083830152505050565b60006117c36117be84611770565b611755565b9050828152602081018484840111156117df576117de6116f0565b5b6117ea8482856117a1565b509392505050565b600082601f830112611807576118066116eb565b5b81356118178482602086016117b0565b91505092915050565b61182981611361565b811461183457600080fd5b50565b60008135905061184681611820565b92915050565b600080600080600060a08688031215611868576118676111db565b5b600086013567ffffffffffffffff811115611886576118856111e0565b5b611892888289016117f2565b955050602086013567ffffffffffffffff8111156118b3576118b26111e0565b5b6118bf888289016117f2565b94505060406118d088828901611264565b93505060606118e188828901611264565b92505060806118f288828901611837565b9150509295509295909350565b600060208284031215611915576119146111db565b5b60006119238482850161122e565b91505092915050565b600081519050919050565b600082825260208201905092915050565b6000819050602082019050919050565b61196181611205565b82525050565b60006119738383611958565b60208301905092915050565b6000602082019050919050565b60006119978261192c565b6119a18185611937565b93506119ac83611948565b8060005b838110156119dd5781516119c48882611967565b97506119cf8361197f565b9250506001810190506119b0565b5085935050505092915050565b60006020820190508181036000830152611a04818461198c565b905092915050565b7f4e487b7100000000000000000000000000000000000000000000000000000000600052602260045260246000fd5b60006002820490506001821680611a5357607f821691505b602082108103611a6657611a65611a0c565b5b50919050565b7f4e487b7100000000000000000000000000000000000000000000000000000000600052603260045260246000fd5b7f4e487b7100000000000000000000000000000000000000000000000000000000600052601160045260246000fd5b6000611ad582611243565b9150611ae083611243565b925082821015611af357611af2611a9b565b5b828203905092915050565b6000611b0982611243565b91507fffffffffffffffffffffffffffffffffffffffffffffffffffffffffffffffff8203611b3b57611b3a611a9b565b5b600182019050919050565b7f4e6f7420612076616c696420636f6c6c61626f7261746f720000000000000000600082015250565b6000611b7c6018836112d3565b9150611b8782611b46565b602082019050919050565b60006020820190508181036000830152611bab81611b6f565b9050919050565b7f53656e6465722063616e6e6f7420626520636f6c6c61626f7261746f72000000600082015250565b6000611be8601d836112d3565b9150611bf382611bb2565b602082019050919050565b60006020820190508181036000830152611c1781611bdb565b9050919050565b7f436f6c6c61626f7261746f7220616c7265616479206578697374730000000000600082015250565b6000611c54601b836112d3565b9150611c5f82611c1e565b602082019050919050565b60006020820190508181036000830152611c8381611c47565b905091905056fea2646970667358221220e37cc5de5ad25cbf3bf84b82d42897a2175d03fce33e01f0993cd6ed0e835bd664736f6c634300080e003353616c61727920646973747269627574656420616d6f6e67207465616d206d656d6265727352657475726e206f6e2053797374656d73204c74642e20696e766573746d656e74",
  "immutableReferences": {},
  "source": "// SPDX-License-Identifier: MIT\npragma solidity >=0.4.22 <0.9.0;\n\ncontract Ledger {\n    struct Transaction {\n        uint256 id;\n        string title;\n        string description;\n        uint256 amount;\n        uint256 date;\n        bool isExpense;\n    }\n\n    constructor() {\n        addTransaction(\n            \"Salary\",\n            \"Salary distributed among team members\",\n            50000,\n            block.timestamp,\n            true\n        );\n        addTransaction(\n            \"Investment\",\n            \"Return on Systems Ltd. investment\",\n            1001,\n            block.timestamp,\n            true\n        );\n    }\n\n    // address to Transactions mapping\n    mapping(address => Transaction[]) public transactions;\n\n    // address to addresses mapping\n    mapping(address => address[]) public collaborators;\n\n    modifier collaboratorNotExist(address _collaborator) {\n        bool exists = false;\n        for (uint256 i = 0; i < collaborators[_collaborator].length; i++) {\n            if (collaborators[_collaborator][i] == msg.sender) {\n                exists = true;\n                break;\n            }\n        }\n        require(!exists, \"Collaborator already exists\");\n        _;\n    }\n\n    event CollaboratorAdded(address indexed _collaborator);\n\n    modifier notSender(address _collaborator) {\n        require(msg.sender != _collaborator, \"Sender cannot be collaborator\");\n        _;\n    }\n\n    // add collaborator only if not already added\n    function addCollaborator(address _collaborator)\n        public\n        notSender(_collaborator)\n        collaboratorNotExist(_collaborator)\n    {\n        collaborators[_collaborator].push(msg.sender);\n        emit CollaboratorAdded(_collaborator);\n    }\n\n    // get collaborators\n    function getCollaborators() public view returns (address[] memory) {\n        return collaborators[msg.sender];\n    }\n\n    // get collaborators count\n    function getCollaboratorCount() public view returns (uint256) {\n        return collaborators[msg.sender].length;\n    }\n\n    // modifier to check if it's a valid collaborator\n    modifier validCollaborator(address _collaborator) {\n        bool isValid = false;\n        for (uint256 i = 0; i < collaborators[msg.sender].length; i++) {\n            if (collaborators[msg.sender][i] == _collaborator) {\n                isValid = true;\n                break;\n            }\n        }\n        require(isValid, \"Not a valid collaborator\");\n        _;\n    }\n\n    // get transactions of a collaborator\n    function getCollaboratorTransactions(address _collaborator)\n        public\n        view\n        validCollaborator(_collaborator)\n        returns (Transaction[] memory)\n    {\n        return transactions[_collaborator];\n    }\n\n    // event to be emitted when a transaction is added\n    event TransactionAdded(\n        uint256 id,\n        string title,\n        string description,\n        uint256 amount,\n        uint256 date,\n        bool isExpense\n    );\n\n    // add transaction of an address\n    function addTransaction(\n        string memory _title,\n        string memory _description,\n        uint256 _amount,\n        uint256 _date,\n        bool _isExpense\n    ) public {\n        transactions[msg.sender].push(\n            Transaction(\n                transactions[msg.sender].length,\n                _title,\n                _description,\n                _amount,\n                _date,\n                _isExpense\n            )\n        );\n\n        emit TransactionAdded(\n            transactions[msg.sender].length - 1,\n            _title,\n            _description,\n            _amount,\n            _date,\n            _isExpense\n        );\n    }\n\n    // get all transactions of a user\n    function getTransactions() public view returns (Transaction[] memory) {\n        return transactions[msg.sender];\n    }\n\n    // get transaction of an address\n    function getTransaction(uint256 _id)\n        public\n        view\n        returns (Transaction memory)\n    {\n        return transactions[msg.sender][_id];\n    }\n\n    // get transaction count of an address\n    function getTransactionCount() public view returns (uint256) {\n        return transactions[msg.sender].length;\n    }\n}\n",
  "sourcePath": "/Users/farhanali/Documents/finchain-dapp/truffle/contracts/Ledger.sol",
  "compiler": {
    "name": "solc",
    "version": "0.8.14+commit.80d49f37.Emscripten.clang"
  },
  "schemaVersion": "3.4.10",
  "updatedAt": "2022-12-05T17:57:19.122Z",
  "networkType": "ethereum",
  "devdoc": {
    "kind": "dev",
    "methods": {},
    "version": 1
  },
  "userdoc": {
    "kind": "user",
    "methods": {},
    "version": 1
  }
}